:100000000C946D0F0C94950F0C94950F0C94950F08
:100010000C94950F0C94950F0C94950F0C94950FD0
:100020000C94950F0C94950F0C94B6130C94281403
:100030000C94950F0C94950F0C94950F0C94950FB0
:100040000C94950F0C94950F0C94950F0C94950FA0
:100050000C94950F0C94950F0C94950F0C9411180B
:100060000C94950F0C94950F0C94950F0C94950F80
:100070000C94950F0C94950F0C94950F0C94950F70
:100080000C945B180C94950F0C94950F0C94950F91
:100090000C94950F0C94950F0C94950F0C94950F50
:1000A0000C94950F0C94950F0C94950F80200000E4
:1000B0000000000000000000000000000000000040
:1000C0000000000000000000000000000000000030
:1000D0000000000000000000000000000000000020
:1000E0000000000000000000000000000000000010
:1000F00000000000000000000000000000E0C0C0A0
:10010000E0E0C0C080C0C080C0E0E08080000000AF
:1001100000000000000000000000000000000000DF
:1001200000000000000000000000000000000808BF
:10013000080808080808080808080808080808083F
:10014000080808080808080808080808101010100F
:100150001010A0A0A06060406020201010101008B7
:100160000808080804040404040404040202020247
:10017000020202020202020202020202020203025E
:100180000304070505070504060B0F0908081010EE
:10019000101020202040404080808000000000009F
:1001A000000000000000000000000000000000004F
:1001B000000000000000000000000000000000003F
:1001C00000000000000080406020101808080402B1
:1001D000010100000000000000000000000000001D
:1001E000000000000000000000000000000000000F
:1001F00000000000000000000000000000000000FF
:1002000000000000000000000000000000000000EE
:1002100000000000000000000000000101020204D4
:1002200008083840C0800000000000000000000006
:10023000000000000000000000000000C0301018A6
:10024000080808040203000000000000000000008D
:10025000000000000000000000000000000000009E
:10026000000000000000000000000000000000008E
:10027000000000000000000000000000000000007E
:10028000000000000000000000000000000000006E
:10029000000000000000000000000000000000005E
:1002A0000000000000000102060C1830E0808020F1
:1002B000000000000000000000000000000000003E
:1002C000000000000000000000000000000000002E
:1002D000000000000000000000000000000000001E
:1002E000000000000000000000000000000000000E
:1002F00000000000000000000000000000000000FE
:1003000000000000000000000000000000000000ED
:1003100000000000000000000000000000000000DD
:1003200000000000000000000000000000000000CD
:1003300000000000000000000000000000000000BD
:10034000000000008080402020101010204040401D
:1003500070080404040484C4840808080830408039
:10036000000000000000000000000000000000008D
:10037000000000000000000000000000000000007D
:10038000000000000000000000000000000000006D
:10039000000000000000000000000000000080805D
:1003A00040402020201010101018080808080808E5
:1003B00000000000808040606040408080800080BD
:1003C000C0202719080000000000180604040808CF
:1003D0000808000000000300000101000000000107
:1003E000020408102020408000000000000000806F
:1003F0008080808C8C7C6E5E4C4C7C4C4C98F89C45
:1004000098F810000000000000000000000080C00C
:1004100040402010100808040406020201010000F8
:1004200000000000000000000000000000000000CC
:1004300080C0601F00000080808040300E010100FD
:1004400000000000000000000000000000000000AC
:10045000000000000000000000000080402010109C
:100460000804040402020203020201010101010066
:10047000000000000000000000000000000000007C
:10048000000001010181C222141C080402010000C5
:10049000000000000000000000000000000000005C
:1004A000000000000000000000000000000000004C
:1004B000F0F89C8E8783878E9CF8F00000FEFF0387
:1004C00003030303070EFCF80000FEFF030303030E
:1004D00003070EFCF80000FFFF0000000000000012
:1004E000FFFF0000FEFF8383838383C7EE7C380019
:1004F00000F8FC0E07030303070EFCF800003F7F23
:10050000E0C08080C0E07F3FFFFF010101010101E9
:1005100001FFFF0000FFFF0C0C0C0C1C3E77E3C139
:1005200000007FFFC0C0C0C0C0E0703F1F00001FC0
:100530003F70E0C0C0C0E0703F1F00007FFFC1C13E
:10054000C1C1C1E3773E1C00001F3F70E0C0C0C0C6
:10055000E0703F1F000000000001FFFF01000000ED
:10056000D5F08D14A1C881CFD9F1AF20000C087F40
:1005700018BED92A7E7E2AD9BE187F80400000008E
:1005800000CC7810382466400000000000000038DD
:10059000608000000000000000C0E07E000000005D
:1005A000000000000000000000000000000000004B
:1005B0000000F81020408000000000000000000053
:1005C000000000000000000080C0201804000000AF
:1005D00000000000081870C080000000000000004B
:1005E000000000000000000000000000F8000020F3
:1005F00024A8F860FCD0504828000000000000004B
:1006000000000000000000000000000000000000EA
:1006100000070404048464321F070100C0C0C080C6
:1006200080800000C000000000000008F80000000A
:10063000000003FC000000010204040810204080B8
:10064000000000000060D80601000000000000C0AB
:100650003EC000000000008081673C00000000FAFE
:10066000000000F00C0602040CF80007080818F05F
:100670000701000003010102020000000000000069
:100680000000000000000000000000020C0818300C
:100690002010180C0601000070D88E030100804065
:1006A000300F000001070C183020301E030000003E
:1006B00000C038070000020C00000000000000002D
:1006C000010E30C00000010302020202020201001A
:1006D00000010604060201010000000000000007FE
:1006E0000000070100000000000700000000303398
:1006F00000000000000000000000000000000040BA
:100700004040404644C8F0FF70F82C222000000012
:1007100000000000000000000000000101010000D6
:1007200000000000000000000000000000008070D9
:100730000E010000000000000000000000000000AA
:1007400000000000030C30C00000000000000000AA
:100750000000000000000000000000000000000099
:100760000000000000000000000000000000000089
:100770000000000000000000000000000000000079
:1007800000000006030100010F0001030200000049
:1007900000000000000000000000008080808080D9
:1007A000404040404040202020202020E01C03000A
:1007B0000000000000000000000000000000000039
:1007C0000000000000000000031C30D010102020AA
:1007D00020202020202020202040404040404080F9
:1007E0008080808000000000000000000000000009
:1007F0000000302060C080C06020000000000000C9
:10080000000000000000000000000000000000E008
:1008100010080804040202010101010000000000A8
:10082000000000000000000000C0380700000000C9
:1008300000000000000000000000000000000000B8
:1008400000000000000000000000008083CC700069
:100850000000000000000000000000000000000098
:10086000000000000101011112620404080810E0F8
:100870000000060203010103060C00000000000056
:100880000000000000000000000000000000000068
:10089000010202040408081010101020202020205B
:1008A00040404040404080808081828284848488AF
:1008B00088101010101010101010101010101010C0
:1008C000080808080C0404040602030100008080E4
:1008D00080808080808080808040404040404020F8
:1008E000202020201010101008080404020201002B
:1008F00000000000000000000000000000000000F8
:1009000000000000000000000000000000000000E7
:1009100000000000000000000000000000000000D7
:1009200000000000000000000000000000000000C7
:1009300000010101010101010101010101010101A8
:100940000101010101010101010101010101000099
:100950000000000000000000000000000000000097
:100960000000000000000000000000000000000087
:100970000000000000000000000000000020200037
:1009800000000000C07C06020206840C080E020172
:1009900001018386DC6020B010171C0E0B0D0400D3
:1009A0003C4643C18180801C342E21232C14080036
:1009B000000101003030D01C0700000000000000E2
:1009C0000000001C3623212020F03020604060F021
:1009D00038201010180C0700000000000000000074
:1009E000000000000080C060380700000000007FA9
:1009F000424040C0800000000000000000000002F3
:100A000082F38F4040A0703000000A040A0000000A
:100A10008080800838D01020207F000000008100F6
:100A200080001C1B088484E2F3F8F0E48488081337
:100A30001CB1010203808080020502506291A24035
:100A4000909494A4E7F7FFFFFFF7525048444040CA
:100A5000436426030001A147A102A344A20180042C
:100A60000627170F07178FE737100000040A040046
:100A7000080C12916020002020404EB4C4090A14D2
:100A8000180000010122729A8E8282808080060600
:100A900009102040801E280282F38F4040A0703051
:100AA00000000A040A0000008080800838D010206E
:100AB000207F00000000810080001C1B088484E26D
:100AC000938890E4848808131CB10102038080801D
:100AD000020502506291A240909494A4E73708095D
:100AE00008F5525048444040436426030001A147A2
:100AF000A102A344A20180040625140C04148CE472
:100B000037100000040A0400080C12916020002035
:100B100020404EB4C4090A14180000010122729A40
:100B20008E828280808006060910204080110A157E
:100B3000040E0E1F1F1F0E0A05110A15040E0E1FAC
:100B40001F1F0E0004070808C83010000000040A28
:100B500004000010305088080B0C000000000A044C
:100B60000A00008406050424148C84E0F0F8F0E008
:100B7000838D112101010000C02040800080605061
:100B80006192A1408084889CE7F7FFFFFFF75248FD
:100B9000444040404261200080012251200243A491
:100BA000420180840627170F07170F274780800010
:100BB0000A040A000C939060200000000030D0105E
:100BC0001116190102000000088C945262210000E5
:100BD0000000018244241800001E280004070808B1
:100BE000C83010000000040A0400001030508808CB
:100BF0000B0C000000000A040A000084060504240F
:100C0000148C84E0908890E0838D11210101000014
:100C1000C0204080008060506192A1408084889C08
:100C2000E737080908F55248444040404261200037
:100C300080012251200243A4420180840625140C25
:100C400004140C24478080000A040A000C9390606E
:100C5000200000000030D010111619010200000021
:100C6000088C945262210000000001824424180084
:100C700000041104150E0E1F1F1F0E0A0504110497
:100C8000150E0E1F1F1F0E80400000000000000008
:100C900000E030080400000080000000000C18B0E4
:100CA0006000000060C4000000F0183E101010004A
:100CB000000080C040400000000080FE404040C076
:100CC000000000000000000000000000C0B88684A2
:100CD00084C4460202028060300E0200C088000018
:100CE00000008080C0000000FC808080800000C088
:100CF00060FC404040600000000000000080E038E0
:100D00000E000000000000000000000000000000D5
:100D1000061B10101010180C0706080808080E0310
:100D2000000000040407000000070404C440404021
:100D30004047458484868280000003010000000F44
:100D400000000000000000000000000F0100000093
:100D500000000000001E131000000010101F000013
:100D60003C2731F81F00001F030000003F00003F38
:100D7000202020000000000000804000070100004B
:100D80000000000000000000000000000000000063
:100D90000000204040808080000002060404040C13
:100DA00008081010102020204000000001070C1837
:100DB000909060E00000000101030618F020202060
:100DC000E0C0000000000000000000000000000083
:100DD00000000000000000000000000000180808EB
:100DE0000C060301000000000000000000000000ED
:100DF00000000000000000000000000000000000F3
:100E000000000000000000000000000000010302DC
:100E1000040C0810206000000101010262C2806021
:100E2000C00070C0983060C000FC0038C4868341A8
:100E30004140C00F080000000000000700000080D3
:100E4000C061330E00000000000000000000000040
:100E50000000000000000000000000000000000092
:100E60000000000000000000000000000000000082
:100E70000000000000000000000000000000000072
:100E8000000000000000000000010102020404183C
:100E9000302040C08000000000083A2276746D497E
:100EA0005B766C787F684FD89F2120E0F8FFFF7E4B
:100EB0000E8CFFF4C8C8C848C8C4E4F43A3F3F7B6E
:100EC000F8F8F0C080000000000000000000000002
:100ED0000000000000000000000000000000000012
:100EE0000000000000000000000000000000000002
:100EF00000000000000000000000000000000000F2
:100F000000000000000000000000000000000000E1
:100F10000030202041C1030206040C1020604080F4
:100F20008000000000000000191BDACEE9693B9741
:100F3000F7670FEFEFEFEFEDEFE773797C9CC86099
:100F4000787FFF7F1F070000000000000000000006
:100F50000000000000000000000000000000000091
:100F60000000000000000000000000000000000081
:100F70000000000000000000000000000000000071
:100F80000000000000000000000000000000000061
:100F900000000000000001020408102020C08000B2
:100FA000000102000000000000F0183C79BBB737D8
:100FB000372E0F0D0703030103051FFA1A57D62C0E
:100FC0002C6CCF881810302060408080000000001A
:100FD0000000000000000000000000000000000011
:100FE0000000000000000000000000000000000001
:100FF00000000000000000000000000000000000F1
:1010000000000000000000000000000000000000E0
:1010100000000000000000000000000000000001CF
:10102000020000000000000000010306040C080F8D
:1010300000000000000000000000000000000000B0
:101040000000000101030206040C1811190F06002C
:101050000000000000000000000000000000000090
:101060000000000000000000000000000000000080
:101070000000000000000000000000000000000070
:10108000000000000000000000FFFFFFFF00000064
:101090000000000000000000000000000000000050
:1010A0000000000000000000000000000000000040
:1010B0000000000000000000000000000000000030
:1010C0000000000000000000000000000000000020
:1010D0000000000000000000000000000000000010
:1010E0000000000000000000000000000000000000
:1010F00000000000000000000000000000000000F0
:10110000000000000000000000FFFFFFFF000000E3
:1011100000000000000000000000000000000000CF
:1011200000000000000000000000000000000000BF
:101130000000C0E0C000000000000000000000004F
:10114000000000000000000000000000000000009F
:10115000000000000000000000000000000000008F
:10116000000000000000000000000000000000007F
:10117000000000000000000000000000000000006F
:10118000000000000000000000FFFFFFFFF0F0F093
:10119000F0F0F0F0F0F0F0F0F000000000000000DF
:1011A000000000000000000000000000000000003F
:1011B00004FEFFFFFFFE040000000000000000002E
:1011C000000000000000000000000000000000001F
:1011D000000000000000000000000000000000000F
:1011E00000000000000000000000000000000000FF
:1011F00000000000000000000000000000000000EF
:10120000000000000000000000FFFFFFFFFFFFFFE5
:10121000FFFFFFFFFFFFFFFFFF00000000000000D7
:10122000000000000000E020E0000000000040405E
:1012300040FFFFFFFFFFF8F8F8F8F8F8F8F8F8F8C3
:10124000F8F8F8F8F8F8F8F8F8F8F8F8F8F8F8F81E
:10125000F840C08080000000000000A0C0F8F8FC4A
:10126000F8FCF8F8F8FCF8FCF8F8F8F8E0C0000032
:101270000000000000000080C0E0F0F8FCFEFEFE70
:10128000FCFCF0E0C0800000008020015501FF0060
:10129000000000000000000000000000000000004E
:1012A000000000000000000000000000000000003E
:1012B000000000000000000000000000000000002E
:1012C000000000000000000000000000000000001E
:1012D000000000000000000000000000000000000E
:1012E00000000000000000000000000000000000FE
:1012F00000000000000000000000000000000000EE
:101300000000000000000000000000008400FF005A
:1013100000000000000000000000000000000000CD
:1013200000000000000000000000000000000000BD
:1013300000000000C020C00000000000000000000D
:10134000000000000000000000000000000000009D
:10135000000000000000000000000000000000008D
:10136000000000000000000000000000000000007D
:10137000000000000000000000000000000000006D
:1013800000000000000000000000001012109F107C
:1013900090101010901010101010F00000000000BD
:1013A000000000000000000000000000000000003D
:1013B000000004FE050405FE04000000000000001B
:1013C000000000000000000000000000000000001D
:1013D000000000000000000000000000000000000D
:1013E00000000000000000000000000000000000FD
:1013F00000000000000000000000000000000000ED
:1014000000000000000000000000000024000400B4
:1014100000002000040004000000FF0000000000A5
:101420000000000000000000E020E00000000000DC
:10143000404040FF000000FF0808080808080808AE
:10144000080808080808080808080808080808081C
:101450000808F840C08080000000000000A040386C
:10146000C80C288C6828482C882C8868089860C08C
:10147000000000000000000000804020100804026E
:101480000202041C3060C0800000008080808080E8
:10149000808080808080808080800000000000004C
:1014A000000000000000000000000000000000003C
:1014B000000000000000000000000000000000002C
:1014C000000000000000000000000000000000001C
:1014D000000000000000000000000000000000000C
:1014E00000000000000000000000000000000000FC
:1014F0000000000000000000000000C0C0C0C0C02C
:10150000C0C00000000000FFFFFFFFFFFFFFFFFF64
:10151000FFFFFFFFFFFFFFFFFFFF000000000000D5
:1015200000000000000000000000000000000000BB
:1015300000000000000000000000000000000000AB
:10154000000000000000000000000000000000009B
:10155000000000000000000000808080F0F080802B
:10156000000000000000000000000000000000007B
:101570000000000000000000000000FFFFFFFFFF70
:10158000FFFF0000000000FFFFFFFFFFFFFFFFFF66
:10159000FFFFFFFFFFFFFFFFFFFF00000000000055
:1015A000000000000000000000000000000000003B
:1015B000000000000000000000000000000000002B
:1015C0008080800000000000000000000000C0E0FB
:1015D000E0E0E0E0E0E0E0E0E0FFFFFFFFFFFFFF32
:1015E000E0E0E0E0E0E0E0E0E0E0800000000000BB
:1015F0000000000000000000000000FFFFFFFFFFF0
:10160000FFFFFFFFFFFFFFFFFFFFFFFFFFFFFFFFEA
:10161000FFFFFFFFFFFFFFFFFFFF80C0E0F0F8FCD0
:10162000FCFCFCFCFCFCFCFCFCFCFCFCFCFCFCFCFA
:10163000FCFCFCFCFCFCF8F0F0F8FCFEFEFEFEFE00
:10164000FFFFFFFEFEFEFEFEFEFCF8F0FCFFFFFFCC
:10165000FFFFFFFFFFFFFFFFFFFFFFFFFFFFFFFF9A
:10166000FFFFFFFFFFFFFFFFFFFFFFFEF0C000F8DF
:1016700008000000000008F8000000FFFFFFFFFF67
:10168000FFFFFFFFFFFFFFFFFFFFFF802080808045
:10169000808080808080808080808080000000004A
:1016A000000000000000000000000000000000003A
:1016B000000000000000000000000000000000002A
:1016C000000000000000000000000000000000001A
:1016D000000000000000000000000000000000000A
:1016E00000000000000000000000000000000000FA
:1016F00000000000000000000000000000C04040AA
:10170000404040C00000000000FF011501FF0092B2
:101710000080001200900002009200FF0000000014
:1017200000000000000000000000000000000000B9
:1017300000000000000000000000000000000000A9
:101740000000000000000000000000000000000099
:101750000000000000000000000000808080F0F029
:101760008080000000000000000000000000000079
:1017700000000000000000000000000000FF002446
:10178000002100FF0000000000FF009100FF002486
:101790000004002000040024000000FF00000000FE
:1017A0000000000000000000000000000000000039
:1017B0000000000000000000000000000000000029
:1017C0000000808080000000000000000000000099
:1017D000C020202020202020202020FF000000000A
:1017E00000FF2020202020202020206080000000FA
:1017F00000000000000000000000000000FF0000EA
:1018000000FF01510555055101FFF01410FF00497B
:101810000041004800410009004900FF80402010BD
:101820000804040404040404040404040404040474
:10183000040404040404040408103048840202026E
:10184000020203020302020202020204C8300C0375
:101850000000000000000000000000010000000087
:10186000000100000000000000000000010E30C078
:1018700000F808000000000008F8000000FF808069
:1018800080FF00015000100000FFFF00000000007A
:101890000000000080D0F0FFFFFFFEFC50100000B1
:1018A0000000000000FCFCFCF8702021A1E1F0FE2B
:1018B000FFFFFFFED21418101010101808000001CE
:1018C00000000001050D05030105030101000000F2
:1018D000000000000018140000000000000080D08C
:1018E00070FE113214B85010000000000000000813
:1018F000946850B060A1A160300E010101FE121485
:101900001810101010180801000100000101010555
:10191000050301050301000000000000000000189D
:1019200014000000000000000090F0FC123112BC16
:1019300050100000000000000094D824A85020207F
:10194000A061300E0101013ED214181010101018C1
:101950000800000100000001010905030105030161
:10196000010000000000000000080B00020202015C
:101970000009040000010202000005240010010516
:101980002401010104240206052406000107058143
:101990000310004009040100020A000000070502CC
:1019A00002400000070583024000000403090412FE
:1019B000010002EF020140412336800001010203D1
:1019C0000141726475696E6F204C4C430041726432
:1019D00075626F790000000000003E5B4F5B3E3E89
:1019E0006B4F6B3E1C3E7C3E1C183C7E3C181C57CB
:1019F0007D571C1C5E7F5E1C00183C1800FFE7C36F
:101A0000E7FF0018241800FFE7DBE7FF30483A063D
:101A10000E2629792926407F050507407F05253FA9
:101A20005A3CE73C5A7F3E1C1C08081C1C3E7F1495
:101A3000227F22145F5F005F5F06097F017F0066DF
:101A400089956A606060606094A2FFA29408047E39
:101A5000040810207E201008082A1C08081C2A08E8
:101A6000081E101010100C1E0C1E0C30383E3830A2
:101A7000060E3E0E06000000000000005F000000A1
:101A800007000700147F147F14242A7F2A122313CF
:101A900008646236495620500008070300001C22E3
:101AA00041000041221C002A1C7F1C2A08083E0815
:101AB0000800807030000808080808000060600016
:101AC00020100804023E5149453E00427F4000720A
:101AD000494949462141494D331814127F10274581
:101AE0004545393C4A49493141211109073649499F
:101AF0004936464949291E000014000000403400C0
:101B00000000081422411414141414004122140873
:101B100002015909063E415D594E7C1211127C7F2B
:101B2000494949363E414141227F4141413E7F4939
:101B30004949417F090909013E414151737F080824
:101B4000087F00417F41002040413F017F0814226F
:101B5000417F404040407F021C027F7F0408107F8D
:101B60003E4141413E7F090909063E4151215E7FC8
:101B700009192946264949493203017F01033F409B
:101B800040403F1F2040201F3F4038403F63140823
:101B9000146303047804036159494D43007F4141B4
:101BA000410204081020004141417F040201020467
:101BB0004040404040000307080020545478407FD4
:101BC000284444383844444428384444287F38540E
:101BD00054541800087E090218A4A49C787F0804B5
:101BE000047800447D40002040403D007F102844A0
:101BF0000000417F40007C047804787C080404786D
:101C00003844444438FC1824241818242418FC7C34
:101C100008040408485454542404043F44243C4019
:101C200040207C1C2040201C3C4030403C4428107C
:101C300028444C9090907C4464544C4400083641B5
:101C40000000007700000041360800020102040293
:101C50003C2623263C1EA1A161123A4040207A383E
:101C600054545559215555794121545478412155A1
:101C700054784020545579400C1E527212395555F3
:101C80005559395454545939555454580000457CC9
:101C9000410002457D420001457C40F0292429F0A5
:101CA000F0282528F07C545545002054547C547C61
:101CB0000A097F4932494949323248484832324A52
:101CC0004848303A4141217A3A42402078009DA06C
:101CD000A07D39444444393D4040403D3C24FF24EC
:101CE00024487E4943662B2FFC2F2BFF0929F62021
:101CF000C0887E090320545479410000447D41305E
:101D000048484A32384040227A007A0A0A727D0DE9
:101D100019317D2629292F28262929292630484DA1
:101D20004020380808080808080808382F10C8ACF0
:101D3000BA2F102834FA00007B000008142A14225D
:101D400022142A14089500220095AA005500AAAA78
:101D500055AA55AA000000FF00101010FF0014142F
:101D600014FF001010FF00FF1010F010F0141414F6
:101D7000FC001414F700FF0000FF00FF1414F4042B
:101D8000FC141417101F10101F101F1414141F0020
:101D9000101010F0000000001F101010101F101085
:101DA0001010F010000000FF101010101010101094
:101DB00010FF10000000FF140000FF00FF00001FD4
:101DC00010170000FC04F414141710171414F40472
:101DD000F40000FF00F714141414141414F700F79F
:101DE000141414171410101F101F141414F41410CA
:101DF00010F010F000001F101F0000001F14000062
:101E000000FC140000F010F01010FF10FF14141468
:101E1000FF141010101F00000000F010FFFFFFFF64
:101E2000FFF0F0F0F0F0FFFFFF0000000000FFFF08
:101E30000F0F0F0F0F38444438447C2A2A3E147E7B
:101E400002020606027E027E02635549416338445F
:101E5000443C04407E201E2006027E020299A5E733
:101E6000A5991C2A492A1C4C7201724C304A4D4DCE
:101E7000303048784830BC625A463D3E49494900B6
:101E80007E0101017E2A2A2A2A2A44445F444440D2
:101E9000514A444040444A51400000FF0103E08061
:101EA000FF000008086B6B083612362436060F094F
:101EB0000F06000018180000001010003040FF014D
:101EC00001001F01011E00191D1712003C3C3C3C83
:101ED00000000000000019224B2311241FBECFEF89
:101EE000DAE0DEBFCDBF12E0A0E0B1E0E2E4FCE466
:101EF00002C005900D92A035B107D9F728E0A0E502
:101F0000B2E001C01D92A236B207E1F71FE0CCE6B5
:101F1000DFE004C02197FE010E940224CB36D107E6
:101F2000C9F70E947E190C9414260C9400006F923D
:101F30007F928F929F92AF92BF92CF92DF92EF9259
:101F4000FF920F931F93CF93DF9300D000D0CDB7B4
:101F5000DEB7DB0159014115510509F4C7C1FA018A
:101F60006491319674910F3F29F4232B11F001E015
:101F700001C002E0E62EF12C9C012E0D3F1D121631
:101F800013060CF0B3C1803891050CF0AFC1FD0110
:101F9000E70FF11D1E161F060CF0A8C1A034B105F5
:101FA0000CF0A4C1FA2FF7709F2EFD01B7FD3796F4
:101FB00013E0F595E7951A95E1F71E2FB7FF04C0DA
:101FC000992011F01FEF1E0F97FF05C0EE27FF2786
:101FD000E81BF90B02C0E0E0F0E02038310524F006
:101FE00020E8822E881A01C0862E8E1AA12F012E7B
:101FF000000CBB0B1F3F1CF4DA2ED09401C0D12C77
:1020000021E0372F377009F420E0769576957695A4
:10201000270FA20FB11D199714F028E0211B722E73
:102020007D183D2D310FDC0120E83203A00DB11DDC
:102030001124AE0FBF1FCF01D69E800D911D11241C
:10204000BC014E5F5F4F480F591F81E090E06C016B
:10205000092C02C0CC0CDD1C0A94E2F7033009F411
:1020600003C1A0F4013009F4B5C0023009F03EC14B
:102070008FEF8C9DB0018D9D700D11246095709532
:102080007C836B836C80272D230F2BC00A3F31F09C
:102090000B3F09F02BC1272D230F88C0272D230FBD
:1020A00051C0FA01E00FF11FE491EC9D5001ED9D4C
:1020B000B00C1124BA82A98237FD07C0FC01B080A0
:1020C000EB2DE623AE2AFC01A082911013C00F5F16
:1020D0001F4F0196081528F33F5F4E0D5F1DA05856
:1020E000BF4F321709F402C1CD0185549C4F00E067
:1020F00010E0F0CF37305CF7FC01E058FF4FB080C4
:10210000B620AA80BA28B082E2CFFA01E60FF71F04
:10211000E491EC9D8001ED9D100D11241A8309833B
:1021200037FD04C0FC011081012B0083911013C006
:102130006F5F7F4F0196681540F33F5F4E0D5F1D47
:10214000A058BF4F321709F4D1C0CD0185549C4F20
:1021500060E070E0F0CF37305CF78C0100581F4F23
:10216000F801B080FA81BF2AF801B082E1CFFA010C
:10217000E00FF11FE491EC9DC001ED9D900D112445
:102180009A83898337FD05C08095FB01908189235F
:102190008083911014C00F5F1F4F6F5F7F4F081532
:1021A00030F33F5F4E0D5F1DA058BF4F321709F44B
:1021B0009DC0BD0165547C4F00E010E0F0CF37308A
:1021C00054F7FB01E058FF4F8A8180959081892365
:1021D0008083E1CFC501860F971F272D230F32176C
:1021E00009F484C0BD0165547C4F5B0100E010E040
:1021F000081590F5FC01E00FF11FE491EC9DB00192
:10220000ED9D700D1124609570957C836B83FA01B0
:10221000E00FF11FE491EC9D3001ED9D700C112455
:102220007A82698237FD05C0F50170816723662ACD
:102230006082992059F037304CF4F501E058FF4F97
:1022400070816C8167237A81672B60830F5F1F4FDA
:10225000FFEFAF1ABF0ACCCF3F5F4E0D5F1D8E0D53
:102260009F1DA058BF4FBBCFA82CB12CFA01E60F81
:10227000F71FA554BC4F60E870E06A197B09EA18A3
:10228000FB088701000F111F582D272DCF93DF93D7
:10229000ED01EF96EF9622966590A590992059F062
:1022A0006C9C3001AC9C500137302CF4F880B09419
:1022B000FB20F728F99233233AF0FC90A094FA20FF
:1022C000F628FD920C94651111965A9529F72A95D6
:1022D00051F0582D33951124E00FF11DA60FB11DBB
:1022E000C60FD11DD9CFDF91CF9111240F900F9040
:1022F0000F900F90DF91CF911F910F91FF90EF9072
:10230000DF90CF90BF90AF909F908F907F906F9015
:1023100008950F9302E020E030E00E94970F0F91A4
:10232000089580E0EBEBF3E081118FEF00248193BF
:102330008193819381930394D1F70895009769F075
:10234000FC0101900020E9F73197AF01481B590BC0
:10235000BC018EEB97E00C94581680E090E0089555
:10236000CF93DF930E949E11EC018DEE91E00E94CD
:102370009E118C0F9D1FDF91CF910895EBEBF3E041
:10238000A0E0B8E000800EBC8111012C1197A0FDE7
:10239000FDCF0192B9F70DB40895FC018091BA0305
:1023A000811103C08FEF9FEF08959FB7F89482E0EB
:1023B0008093E9002091F20030E01216130614F425
:1023C00021E030E02115310559F0289884E680930A
:1023D000B9038091F10080838091F200882319F085
:1023E0009FBFC90108958BE68093E800F9CF2FB70E
:1023F000F89483E08093E9009091E800892F80723F
:1024000095FF04C09091F20080E4891B2FBF0895CE
:102410008F929F92AF92BF92CF92DF92EF92FF92F4
:102420000F931F93CF93DF935C016B017A0180912F
:102430000F01882309F45BC08091BA03882309F453
:1024400056C08091B80380FF05C08091E000826093
:102450008093E000E70110E00AEF83E0882E9AE322
:10246000992E2097D9F10E94F71181110AC00150CD
:1024700009F43DC061E070E080E090E00E94D71771
:10248000F0CF282F30E0C217D3070CF48C2F4FB7B2
:10249000F8948092E9009091E80095FF1DC0282FE4
:1024A00030E0C21BD30BF601982F915020F08191A0
:1024B0008093F100FACFC20ED31E112319F090922F
:1024C000E80009C08091E80085FD06C09092E80010
:1024D00011E0209709F010E04FBFC3CF1111C3CF17
:1024E0005D9884E68093B7031E141F0444F081E0D6
:1024F00090E0F5019383828380E090E001C0C70102
:10250000DF91CF911F910F91FF90EF90DF90CF90CF
:10251000BF90AF909F908F9008958091DF078111B9
:102520000DC082E08093DB0784E08093DC0710928B
:10253000DE071092DD0781E08093DF078BED97E0E7
:102540000895CF93DF931F92CDB7DEB76983DC0187
:10255000ED91FC910280F381E02D41E050E0BE015D
:102560006F5F7F4F09950F90DF91CF91089583E0C2
:102570008093E9008091F200882319F08AE3809328
:10258000E8000895FC018485958597FD0BC09FB7F1
:10259000F89482E08093E9008091F2009FBF90E080
:1025A000019608959FB7F89482E08093E9008091A6
:1025B000F2009FBF90E008954091490850914A0869
:1025C000209147083091480842175307B4F490917E
:1025D000E8009570E1F39091E80092FD19C08093B6
:1025E000F1008091490890914A0801968F739927CC
:1025F000892B19F48EEF8093E8008091490890911F
:102600004A08019690934A088093490881E008950A
:1026100080E00895DF92EF92FF920F931F93CF9384
:10262000DF93D82E8A017B01E40EF51EEB01CE1557
:10263000DF0571F0D7FE03C0FE01849101C08881DF
:102640000E94DC1221968111F2CF8FEF9FEF01C023
:10265000C801DF91CF911F910F91FF90EF90DF9014
:102660000895615030F02091F100FC012083019623
:10267000F8CF289884E68093B90308950E94F71153
:1026800090E008950F931F93CF93DF931F92CDB7E0
:10269000DEB78C01FC018485958597FF0EC0CE01C5
:1026A00001960E94CD11019719F4298130E002C0F2
:1026B0002FEF3FEFF80135872487F8018485958552
:1026C0000F90DF91CF911F910F910895CF93DF93DA
:1026D0001F92CDB7DEB7FC018485958597FD05C0B7
:1026E0002FEF3FEF358724870BC0CE0101960E9464
:1026F000CD11019719F4898190E002C08FEF9FEF0F
:102700000F90DF91CF9108950F931F93CF93DF9395
:102710001F92CDB7DEB782E0898342E450E069E6DC
:1027200079E180E80E940A130E948D12DC01129662
:102730000D911C9113970115110569F0D801ED91C8
:10274000FC910280F381E02DBE016F5F7F4FC801D5
:10275000099597FF07C089810F90DF91CF911F9155
:102760000F910895F80100851185E5CF1F920F9212
:102770000FB60F9211248F939F938091E100909157
:10278000E100937F9093E10083FF0FC01092E90076
:1027900091E09093EB001092EC0092E39093ED00A7
:1027A0001092BA0398E09093F00082FF20C093E06B
:1027B0009093E9009091F200992319F09AE3909395
:1027C000E8009091B703992339F09091B7039150A5
:1027D0009093B703992389F19091B903992339F024
:1027E0009091B90391509093B903992341F184FFDB
:1027F00010C08091E2008E7E81608093E200809123
:10280000E1008F7E8093E1008091B8038E7E80612D
:1028100011C080FF16C08091E2008E7E806180939F
:10282000E2008091E1008E7E8093E1008091B80308
:102830008E7E81608093B80304C05D9ACDCF289AC4
:10284000D6CF9F918F910F900FBE0F901F9018952C
:102850001F920F920FB60F921124CF92DF92EF9238
:10286000FF920F931F932F933F934F935F936F9319
:102870007F938F939F93AF93BF93EF93FF93CF93E8
:10288000DF93CDB7DEB76C97DEBFCDBF1092E90006
:102890008091E80083FFEDC168E0CE0145960E947B
:1028A000311382EF8093E8008D8987FF05C09091F6
:1028B000E80090FFFCCF03C09EEF9093E800982FB4
:1028C000907609F0C6C09E892F89188D91110CC091
:1028D000803829F4809146088093F10002C010925C
:1028E000F1001092F10048C1422F50E0512B91307D
:1028F00051F4811141C14130510509F03DC1809130
:1029000046088D7F0BC0933061F4811135C1413091
:10291000510509F031C180914608826080934608D4
:102920002BC1953041F48091E80080FFFCCF2068F6
:102930002093E30021C1963009F05FC0EB8CFC8C42
:102940001092E90010924A0810924908123091F54D
:1029500010924808109247080E94841399E0BE0123
:102960006F5F7F4FDB01E92F1D92EA95E9F79983AD
:102970001A8391E09E8390EA98879AEF9987209135
:10298000490830914A08275F3F4F3C832B838D8352
:102990001092E90010924A0810924908F0924808F3
:1029A000E092470849E050E080E00E940A130E944C
:1029B0008413E2C0F0924808E09247080E948D120A
:1029C000DC011296ED90FC901397E114F10409F4E8
:1029D000C0C0D701ED91FC910480F581E02DBE01CE
:1029E0006B5E7F4FC7010995009719F00CF0C4C0CA
:1029F000C7C0F701E084F184E8CF973009F4C0C084
:102A0000983021F481E08093F100B6C0993009F04C
:102A1000B3C0837009F0B4C0E1EAF1E081E021E0E5
:102A200036E39081992361F08093E9002093EB00D5
:102A300091919093EC003093ED008F5F873089F790
:102A40008EE78093EA001092EA008F898093BA03A0
:102A500093C08B8D9C8D1092E90010924A081092C1
:102A600049089093480880934708898D811156C082
:102A70008E899D89913A59F4813209F081C047E0ED
:102A800050E068E071E080E00E940A1375C0913266
:102A900009F076C0833289F4888D90E0982F8827DA
:102AA0002F89822BA0E0B0E0809332019093330114
:102AB000A0933401B09335015FC0803269F48091F6
:102AC000E80082FFFCCF67E088E091E00E943113CC
:102AD0008BEF8093E80006C0823209F04DC08F89E9
:102AE00080930F0180914508882319F0EEEFFAE0FA
:102AF00002C0E0E0F8E08091080190910901A09106
:102B00000A01B0910B01803B9440A105B10509F089
:102B10007BC080910F0180FF93C076C00E948D1210
:102B2000DC0112960D911C9113970115110541F1CD
:102B3000D801ED91FC910190F081E02DBE016B5E1A
:102B40007F4FC8010995811117C0F80100851185D3
:102B5000ECCF113009F44EC0133091F48F898823E3
:102B600009F445C0823081F440E867E08DEC99E1DA
:102B70000E94C922882321F08EEF8093E80079C05B
:102B800081E28093EB0075C0813029F440E86BE06E
:102B900081EC99E1EDCF833099F70E948D12DC0131
:102BA0001296ED90FC9013978E010F5F1F4F6801F6
:102BB000E114F10479F0D701ED91FC910680F781E1
:102BC000E02DB801C7010995080F111DF701E08438
:102BD000F184EECFD8011C92F60101900020E9F7B4
:102BE0003197BF016C197D0940E0C601C1CF6BEA86
:102BF00079E102C06FEA79E16115710509F2FB0123
:102C0000449150E080E840CF0FB6F894A8958091A9
:102C10006000886180936000109260000FBEA895EC
:102C2000EE3F2AE0F20739F08091FE0A9091FF0A08
:102C300091838083A1CF1092FF0A1092FE0A9CCF4D
:102C4000EE3F8AE0F80731F0808191819093FF0A8E
:102C50008093FE0A87E797E7918380839BE088E172
:102C60000FB6F894A895809360000FBE9093600013
:102C700083CF6C960FB6F894DEBF0FBECDBFDF9149
:102C8000CF91FF91EF91BF91AF919F918F917F91E4
:102C90006F915F914F913F912F911F910F91FF90F5
:102CA000EF90DF90CF900F900FBE0F901F90189570
:102CB000CF92DF92EF92FF920F931F93CF93DF9308
:102CC0006C017A018B01C0E0D0E0CE15DF0589F000
:102CD000D8016D918D01D601ED91FC910190F081AB
:102CE000E02DC6010995892B11F47E0102C02196C1
:102CF000ECCFC701DF91CF911F910F91FF90EF9023
:102D0000DF90CF9008953FB7F89480915A08909142
:102D10005B08A0915C08B0915D0826B5A89B05C032
:102D20002F3F19F00196A11DB11D3FBFBA2FA92F4A
:102D3000982F8827820F911DA11DB11DBC01CD01C7
:102D400042E0660F771F881F991F4A95D1F70895B3
:102D500080914B08E0914E08F0914F08882349F08C
:102D6000CF01029690934F0880934E0885919491DD
:102D70000895CF01029690934F0880934E0880816A
:102D8000918108958091500208952F923F924F9221
:102D90005F926F927F928F929F92AF92BF92CF92EB
:102DA000DF92EF92FF920F931F93CF93DF93CDB7F4
:102DB000DEB728970FB6F894DEBF0FBECDBF988759
:102DC0008F836A30A1F4DC0155962C91559751966A
:102DD0008D919C915297B8E02B9F800D911D1124ED
:102DE000EF81F885928B818B108A1786BEC06D307B
:102DF00009F4BBC0AF81B8855596BC91BC83EF8107
:102E0000F88554884388E188F288878590898038DE
:102E10009105C4F0AF81B88555962C915597422FF6
:102E200050E01F968D919C915097B6E02B9F800D9E
:102E3000911D1124EF81F885908B878726892111B8
:102E40007FC093C0F0E4EF16F10424F79C015C818D
:102E500045E0549F200D311D112412161306D4F69F
:102E6000C52ED12C9701A8E05A9F200D311D1124A9
:102E7000121613067CF655E0659FF00111249F01A0
:102E80002B52364E3E832D83912C30E1732EED81F3
:102E9000FE818490F5E09F1201C0812C870128E01B
:102EA000622E80FC02C0552D01C0542D511109C065
:102EB000541007C086946A940C0D1D1D6110F1CF4B
:102EC00033C09C0151705B83322E622F681B5C8182
:102ED000651780F7B801A62FA01B4C81A41708F531
:102EE00020383105D8F460347105C0F4FB0141E0AD
:102EF000E1FD44E0E0FD440FE2FD4295E87F7E9E67
:102F0000D0011124A30DBA83A983A554BC4FBC9052
:102F1000B42A5B81511101C0B426BC926F5F7F4F10
:102F2000DACF2F5F3F4FD0CF93948C0D9D1DED8155
:102F3000FE813196FE83ED83F6E09F12A8CF6ACF23
:102F40006AEF64039001659F300D112420583F4FB4
:102F50002817390754F48F819885DC01ED91FC9195
:102F60000190F081E02D6AE0099581E090E02896DB
:102F70000FB6F894DEBF0FBECDBFDF91CF911F918A
:102F80000F91FF90EF90DF90CF90BF90AF909F9008
:102F90008F907F906F905F904F903F902F9008950B
:102FA0000895089580E090E008950E94FF258F9293
:102FB0009F92AF92BF92CF92DF92EF92FF926B01FE
:102FC0007C010E9483164B015C01C114D104E10411
:102FD000F104F1F00E948316DC01CB0188199909F4
:102FE000AA09BB09883E9340A105B10570F321E011
:102FF000C21AD108E108F10888EE880E83E0981E15
:10300000A11CB11CC114D104E104F10419F7DDCFF6
:10301000FF90EF90DF90CF90BF90AF909F908F90F8
:1030200008951F920F920FB60F9211242F933F9382
:103030008F939F93AF93BF938091510290915202CF
:10304000A0915302B09154023091590823E0230F0C
:103050002D3720F40196A11DB11D05C026E8230FD0
:103060000296A11DB11D209359088093510290939F
:103070005202A0935302B093540280915A08909147
:103080005B08A0915C08B0915D080196A11DB11D7F
:1030900080935A0890935B08A0935C08B0935D08F6
:1030A000BF91AF919F918F913F912F910F900FBE44
:1030B0000F901F9018951F920F920FB60F92112428
:1030C000CF92DF92EF92FF920F931F932F933F9334
:1030D0004F935F936F937F938F939F93AF93BF9320
:1030E000CF93DF93EF93FF9380915508909156080B
:1030F000A0915708B0915808892B8A2B8B2B89F106
:103100008091540881110BC098B180E4892788B957
:1031100080915308882319F088B1805888B980912C
:10312000550890915608A0915708B0915808181664
:1031300019061A061B060CF0B1C080915508909133
:103140005608A0915708B09158080197A109B109F4
:103150008093550890935608A0935708B093580849
:103160009DC00E94A816811520E8920761F4809105
:1031700071008D7F8093710010929100469847985E
:10318000109252088BC021E020935208813020E831
:10319000920751F4809150089091510890934F08F4
:1031A00080934E080E94A81697FD05C020914D08F7
:1031B000222309F43FC020914C0821113BC021E09B
:1031C00020935308EC01DF77209769F481E0809326
:1031D000540846983FE9C32E3FE0D32EE12CF12C52
:1031E000CAEFD0E014C08E0120E030E060E472E469
:1031F0008FE090E0A90198010E94672369017A019C
:1032000081E0C81AD108E108F10810925408E09151
:10321000BB07F091BC070995811103C081E0809341
:103220005408809153088823B9F180915408811182
:1032300033C003C010925308C5CF46992DC0479A9A
:103240000E94A816009771F09C01DE010E94DF2306
:10325000DC01CB0129E0B595A795979587952A952F
:10326000D1F703C08FEF9FEFDC01109290002AE0AE
:1032700020939100D0929900C092980080935508B5
:1032800090935608A0935708B09358088091710006
:1032900082608093710002C04798D2CFFF91EF9176
:1032A000DF91CF91BF91AF919F918F917F916F915E
:1032B0005F914F913F912F911F910F91FF90EF9050
:1032C000DF90CF900F900FBE0F901F9018952D9A02
:1032D0000895BC0180E090E00C94D7178FB18095E1
:1032E000807F669B88601C9B846008953E9A3F9A0D
:1032F00081E08093500208950C945123CF93DF9383
:10330000CDB7DEB7A3970FB6F894DEBF0FBECDBF23
:10331000789484B5826084BD84B5816084BD85B5B0
:10332000826085BD85B5816085BD80916E008160BC
:1033300080936E0010928100809181008260809362
:103340008100809181008160809381008091800064
:1033500081608093800080919100826080939100D1
:1033600080919100816080939100809190008160B4
:10337000809390008091C10084608093C10080910F
:10338000C10082608093C1008091C1008160809300
:10339000C1008091C30081608093C3008091C00010
:1033A00082608093C0008091C20081608093C200DF
:1033B00080917A00846080937A0080917A008260A4
:1033C00080937A0080917A00816080937A00809166
:1033D0007A00806880937A001092BA0310924608AF
:1033E0001092B8038091D70081608093D70080EA63
:1033F0008093D80089B5806189BD89B5826089BD17
:1034000009B400FEFDCF61E070E080E090E00E9432
:10341000D7178091D8008F7C80618093D8008091ED
:10342000E000807F8093E0008091E1008E7E8093B9
:10343000E1008DE08093E200559A209AEEEFFFE7DD
:10344000859194918B3F9C4D19F481E080934508C0
:1034500081EC80937C0085B1806F85B984B1877ED3
:1034600084B984B1876E84B95E9A5F988AB1806DA1
:103470008AB9769A6E9881B3806F81BB899880B340
:103480008D7080BB80E58CBD81E08DBD85E090E0D6
:103490000E9469195F9A85E090E00E9469195E9820
:1034A0005C98E0E6F5E08DE08E0F94919EBD000003
:1034B0000DB407FEFDCF31968E13F7CF5C9A81E8ED
:1034C000809364008091650081608093650080E056
:1034D0000E94BE110E946E1987FF24C05C9885EA85
:1034E0008EBD00000DB407FEFDCF5C9A2E982F987C
:1034F0002D988091640080628093640081E083BF96
:10350000889513BEFCCF2D980E946E19847884385C
:1035100071F00E946E198471843131F188EC90E071
:103520000E9469190E946E1982FDEDCF3AC00E9477
:10353000671988EC90E00E9469192F9882E090E06A
:103540000E9451238F3F29F06FEF82E090E00E94AC
:10355000592384EF91E00E9469192F9A0E946E19F5
:1035600084788438D9F3D5CF0E94671988EC90E02D
:103570000E9469192E9882E090E00E9451238823CE
:1035800029F060E082E090E00E94592384EF91E00E
:103590000E9469192E9A0E946E1984718431D9F3A0
:1035A000BDCF0E94671982E090E00E9451238823DA
:1035B00019F00E94761904C0109250023E983F986C
:1035C00081E090E00E947C1982FB772470F881FFF3
:1035D0008EC071102E9800EF1FEF68E0A62EB12C60
:1035E0000E946E1986FF04C02E9A2F9A2D9A7FC0D2
:1035F000772029F00430110511F42E9A2F9881E0DC
:103600000E94BE11980117FF04C022273327201BF8
:10361000310B27703327C80117FD079653E09595A6
:1036200087955A95E1F717FF05C00197A501421B41
:10363000530B9A017C01F694FE2CEE24F794E79448
:1036400040E050E02501421A530AB70160587F4F0D
:103650004B018F3F7FEF970744F40196485A5F4F25
:103660007401403B510589F721C0D701A15BBB4FD5
:1036700060E070E08F3FEFEF9E0709F49CC6FB010E
:10368000E40FF51FE055FB4FE4916D01C818D90810
:10369000CE0CDF1CF0E01F01022E01C0220C0A94A8
:1036A000EAF7F60160802628208285C680E00E9425
:1036B000BE118FE090E00E9469190F5F1F4F093122
:1036C000110509F08DCF772011F02F9A2D9880E900
:1036D00091E00E9469190E946719E091C207F09178
:1036E000C3070190F081E02D82EC97E0099582E319
:1036F00090E00E9469190E946E198111F8CF80E153
:103700008093C9070E9491111092D0071092CF07A1
:103710001092CE071092CD070E9476198FB7F894B9
:1037200040915102509152026091530270915402A3
:103730008FBF8091CA07F42FF81B8F2F9091CB0772
:10374000992329F0F093CC071092CB072CC69091C7
:10375000C907F91748F48F5F891708F024C681E07C
:1037600083BF889513BE1FC611E01093CB0740930B
:10377000CA078091C5079091C60701969093C60726
:103780008093C5070E9491111092D0071092CF0725
:103790001092CE071092CD078091B5039091B60399
:1037A0008230910509F4DBC00CF041C0009709F4A8
:1037B00048C0019709F0D6C547E85CE060E070E0DA
:1037C00080E090E00E94891184E490E09093CE071D
:1037D0008093CD0780E290E09093D0078093CF074D
:1037E00082ED91E00E94B011EAEBF2E020E631E0D8
:1037F000A4E5CA2EA1E0DA2EBCE3EB2EB1E0FB2E4D
:1038000049E552E05BA34AA380E090E00CE010E0C1
:1038100068E070E044E7242E312C5DE6852E55E00B
:10382000952EA2E0AA2EB12CB4E76B2E36C08430C0
:10383000910509F4F3C40CF4D4C4059709F4FFC44A
:1038400091C587EA91E00E94B0118DEB91E00E9452
:10385000B0110E946E1982FF85C58091B403811159
:1038600081C5C4C5A1E0B0E0B38BA28BAAA1BBA166
:1038700011961C930E9313967C936E931297149645
:103880006C92149715967C921597019674961696DD
:10389000BBA3AAA38C30910569F1118300837383C4
:1038A000628335822482D9017C9011965C902E5FD0
:1038B0003F4F7682578291868086D6014D916D0169
:1038C00042871386D7014D915D917D014C595F4F21
:1038D000558744877686578641E050E0518B408B70
:1038E000AC01465051094630510508F0BBCFB38AB0
:1038F000A28ABCCF10921F0110921E0188E090E0B6
:10390000909321018093200185E090E0909326011F
:1039100080932501109229011092B3031092B203F3
:103920001092B1031092B0031092AF031092AE0345
:1039300083E090E090932B0180932A011092AD03D5
:103940001092AC031092AB031092AA030E946E195E
:1039500082FF08C58091B403811104C550C58091D0
:10396000C50780FD33C02091B2033091B303C90174
:1039700001969093B3038093B20397FF02C08158DE
:103980009F4F880F892F881F990B01969093B10341
:103990008093B0030997D4F01092B3031092B2034E
:1039A000EAEBF2E08081918120E830E0281B390BBE
:1039B000358324831386749633E0EA3AF30791F74C
:1039C00084E090E09093B6038093B5030E946E1953
:1039D00087FF16C081E08093B90280912001909109
:1039E00021012091220130912301821B930B883009
:1039F000910514F488E090E09093210180932001D8
:103A00000E946E1984FF20C081E08093B80220914B
:103A10002001309121018091220190912301280FF2
:103A2000391F309321012093200140911C015091B6
:103A30001D0180E490E0841B950B8217930724F40A
:103A400090932101809320010E946E1985FF18C078
:103A500081E08093B70280911E0190911F01209117
:103A6000220130912301821B930B97FD05C0909397
:103A70001F0180931E0104C010921F0110921E01AD
:103A80000E946E1986FF20C081E08093B6022091CB
:103A90001E0130911F018091220190912301820F1C
:103AA000931F90931F0180931E0120911A01309162
:103AB0001B0140E850E0421B530B4817590724F400
:103AC00050931F0140931E010E946E1983FF18C07E
:103AD0008091B502811114C081E08093B50290916C
:103AE000AF0391110DC020912A0130912B011216C4
:103AF000130634F48093AF031092B4021092B30211
:103B00000E946E19209120013091210140911E01E7
:103B100050911F0182FF27C08091B403811123C0FF
:103B200081E08093B4039091AE0391111CC0809307
:103B3000AE0380911A0190911B01840F951F059788
:103B4000909307018093060180911C0190911D01C3
:103B500097FD019695958795820F931F02979093F5
:103B600005018093040180911A01885090911C01F5
:103B70005093AE024093AD02B9016C5F7F4F7093DA
:103B8000B0026093AF028093B1029093B20250935F
:103B9000A8024093A7022A5031093093AA02209329
:103BA000A9028EE18093AB0288E28093AC028091FF
:103BB0000401909105014090060150900701509238
:103BC000A2024092A1029093A4028093A3028AE0F1
:103BD0008093A50285E08093A6029AEB292E92E0BD
:103BE000392E25ECA22E22E0B22E69E572E07BA3ED
:103BF0006AA33DE5632E32E0732E4EE5842E42E04B
:103C0000942ED1011C968D919C911D9780589109FD
:103C10002091B2033091B3032817390724F1149689
:103C20002D913C9115978D919C9111974427552783
:103C3000481B590B42175307B4F4F5014081411159
:103C400012C016964D915C91179712969C911297FF
:103C5000EAA1FBA13183208353834283F301808354
:103C6000F40190830CC020E137E2EAA1FBA131838B
:103C7000208333832283F3011082F40110820091A8
:103C8000AD021091AE026091AF027091B002D0907F
:103C9000B202EAA1FBA18081918122813381F301EB
:103CA0004081F4015081F090B102F801EF0DF11D57
:103CB0008E179F07CCF47C01E40EF11C0E151F0536
:103CC0009CF48B010D0D111D201731076CF4890137
:103CD000050F111D601771073CF4F501608161113A
:103CE00003C0F1E0F09358021091AF03111106C028
:103CF0006091AE03662309F458C035C0E090A70276
:103D0000F090A8026091A9027091AA020091AC0201
:103D1000D090AB02F701ED0DF11D8E179F0744F710
:103D20006C01C40ED11CEC14FD0414F77B01E00EF1
:103D3000F11C2E153F05E4F67901E50EF11C6E1518
:103D40007F05B4F6F501808181112FC021E0F501D6
:103D500020838091AC039091AD0301969093AD03C5
:103D60008093AC0322C0E090A102F090A202609187
:103D7000A3027091A4020091A602D090A502F701BF
:103D8000ED0DF11D8E179F0784F4840F911DE81629
:103D9000F9065CF4CB01800F911D281739072CF42C
:103DA000250F311D621773076CF2549634E1A30E90
:103DB000B11C4AA15BA14A5F5F4F5BA34AA356E0D7
:103DC000650E711C66E0860E911C73E0AA3AB70777
:103DD00009F018CF209158028091C5079091C6072D
:103DE000222319F12091290121111FC021E02093E4
:103DF000290120912501309126012150310930936C
:103E0000260120932501232B31F423E030E0309369
:103E1000B6032093B5032091270130912801280F84
:103E2000391F309357022093560220915602309149
:103E300057028217930711F4109229011092580229
:103E400069E070E00E94EE23892B09F043C0809165
:103E50005502811104C081E08093550202C0109286
:103E60005502112349F08091B3029091B40201965A
:103E70009093B4028093B3028091B3029091B40204
:103E800005977CF01092AF0380912A0190912B014D
:103E9000019790932B0180932A011092B402109203
:103EA000B3028091AE03882331F0C2010C96909347
:103EB00007018093060180910601909107018138E6
:103EC000910544F08CE99FEF9093050180930401E4
:103ED0001092AE031092CE071092CD071092D00729
:103EE0001092CF078BED91E00E949E1100E010E050
:103EF0008091250190912601081719071CF48FED78
:103F000091E002C08AE392E00E949E110F5F1F4F72
:103F10000630110569F781EE91E00E949E1100E0E4
:103F200010E080912A0190912B01081719073CF4A9
:103F30008BEE91E00E949E110F5F1F4FF2CF8DEE2E
:103F400091E00E949E1100910201109103010F3F28
:103F5000110514F00FEF1FEF4EEA52E060E270E03F
:103F600088279927801B910B0E9489114CEA50E009
:103F700060E270E080E890E0801B910B0E94891164
:103F80004EEA52E060E270E080E091E0801B910B2D
:103F90000E9489118091C5079091C6076AE070E080
:103FA0000E94EE23892B11F40F5F1F4F1093030122
:103FB00000930201E0900001F0900101C090100117
:103FC000D0901101A0901201B090130180901401C3
:103FD00090901501409016015090170160901801C3
:103FE000709019018FEFE816F1041CF0EE24EA94AA
:103FF000FE2C01E09501A60160E270E08827992778
:104000008E199F090E94970F9201A40160E270E04F
:1040100080E890E08E199F090E94970F9501A601F4
:1040200060E270E080E091E08E199F090E94970F96
:10403000B30177278091C5079091C6070E94EE23B0
:10404000892B19F49FEFE91AF90AF0920101E09225
:104050000001209155026091040170910501809149
:1040600006019091070101E0222311F121E73CE0D4
:104070004BE75CE00E94970F2091AF036091200115
:104080007091210180911E0190911F01222339F02E
:104090006A50710923E43BE049ED5BE021C02091C7
:1040A00030013091310140912C0150912D0125C0FA
:1040B0002DE23BE047E35BE00E94970F2091AF03C6
:1040C000609120017091210180911E0190911F014A
:1040D000222359F06A5071092FEF39E045E95AE07F
:1040E0000E94970F00E010E01FC020913001309136
:1040F000310140912E0150912F0101E0F1CF149632
:104100008D919C9115972D913C9131952195310977
:1041100028173907C4F00C5E1F4FF4E12F0E311C35
:10412000003F110509F41EC1D1011C968D919C918F
:104130001D97805891092091B2033091B30328173D
:1041400039074CF3DCCFF801E654FD4F23852111EC
:10415000E2CF2285222371F02130C9F5D101529698
:104160002D913C915397821B930B15969C938E93A4
:1041700014972DC0F10142895389841B950B9583B7
:10418000848380899189489F9001499F300D589F71
:10419000300D112486819781280F391F378326839C
:1041A00086859785AC01405F5F4F4217530724F423
:1041B0004FEF5FEF518B408B4097281739073CF446
:1041C000E1E0F0E0D1015196FC93EE935097F101BC
:1041D0004085518566817781848195810E9489110E
:1041E0009ACF80EF91E00E94B01181E092E00E94AE
:1041F000B01185E192E00E94B0114DE759E060E214
:1042000070E080E390E00E9489110E946E1982FFA5
:10421000A9C08091B4038111A5C0F7C04BE755E058
:1042200060E070E080E090E00E9489110E946E19C9
:1042300082FF98C08091B403811194C0E9C088E2E4
:1042400092E00E94B01180912501909126014AE0F0
:10425000489F9001499F300D112440912A015091AF
:104260002B0164E1649FC001659F900D1124820FB2
:10427000931F4091AC035091AD036FE0649F900198
:10428000659F300D1124820F931F9093AB03809391
:10429000AA0384E392E00E949E11C090AA03D090EA
:1042A000AB030D2C000CEE08FF08F7FE28C0E091D0
:1042B000BE07F091BF070190F081E02D6DE28EEB1B
:1042C00097E0099522273327A9012C193D094E09AA
:1042D0005F0919A28E010F5D1F4FCA01B9012AE0C3
:1042E00030E040E050E00E94BD23605DD8016E9355
:1042F0008D01211531054105510579F717C0A70139
:10430000960119A28E010F5D1F4FCA01B9012AE063
:1043100030E040E050E00E94BD23605DF801629310
:104320008F01211531054105510579F7C8010E941A
:104330009E118FEE91E00E94B0118FEE91E00E94ED
:10434000B0118FEE91E00E94B0118CE392E00E94D8
:10435000B0110E946E1983FF05C08091B5028823B9
:1043600009F45FC00E946E1983FF1092B5020E948B
:104370006E1982FF1092B4030E946E1987FF10928B
:10438000B9020E946E1984FF1092B8020E946E1941
:1043900085FF1092B7020E946E1986FF1092B60236
:1043A00080E00E94BE1180E090E0892B09F4B6C93C
:1043B0000E940000B3C92115310581F0FB01E40F13
:1043C000F51FE055FB4FE491F0E0042C02C0F59599
:1043D000E7950A94E2F7DC90ED29EC936F5F7F4F4D
:1043E00011966835710509F045C937C91093B403B2
:1043F00021E030E03093B6032093B503B3CF81E0E2
:104400008093B40382E090E007C01093B4030CC023
:104410001093B40385E090E09093B6038093B503C6
:10442000A1CF81E08093B5021092B6031092B5033C
:1044300099CF1092EA071092E90788EE93E0A0E086
:10444000B0E08093EB079093EC07A093ED07B09357
:10445000EE078CE791E09093E8078093E7078FEFF2
:104460009FEF9093F4078093F30788E190E0909397
:104470001B0180931A0184E190E090931D018093C9
:104480001C011092D6071092D5071092D8071092EF
:10449000D7071092DA071092D90761E070E080E048
:1044A00090E00E943525009791F09093D607809375
:1044B000D5071092D8071092D7072091D9073091CD
:1044C000DA07232B09F05CC0FC01108259C08091EF
:1044D000D5079091D607009711F00E949D24109265
:1044E000D6071092D5071092DA071092D9071092CA
:1044F000D8071092D7071092C1071092C0071092E8
:10450000C7071092C80780E18093C9071092C607B9
:104510001092C5071092CB078EE891E09093BF07E9
:104520008093BE078CE991E09093C3078093C20704
:104530001092CE071092CD071092D0071092CF079D
:1045400081E08093D1071092D2078093D307109215
:10455000D40782EC96E19093BC078093BB0780E080
:1045600090E8909344088093430846983E9A479871
:104570003F9A82E090E0909319018093180108958A
:104580001092DA071092D9076FEE71E00E940D26A3
:10459000B2CFCF92DF92EF92FF920F931F93CF9300
:1045A000DF931F92CDB7DEB7182F062FE42E862F8C
:1045B000880F8E5F99830E94DC1283E00E94DC12D8
:1045C000F12EC12E9981D92E8C2D8F19801798F438
:1045D000F601E7FE02C0849101C080810E94DC12D6
:1045E000182F80E00E94DC128123FFEFCF1ADF0A30
:1045F0008111EACF01C081E00F90DF91CF911F912F
:104600000F91FF90EF90DF90CF9008950F931F933D
:10461000CF93DF938C0181E090E00E947C1980FFB2
:1046200032C08AE090E00E947C199FEF980F9E3F75
:1046300050F522E330E0D80150963C932E931F971B
:1046400028E330E052963C932E935197CBE0D0E094
:10465000D801ED91FC910190F081E02D682FC80107
:104660000995CE010E947C192196C131D10581F7AF
:1046700080E00E94BE1188EE93E0DF91CF911F9100
:104680000F910C946919DF91CF911F910F910895AB
:1046900004970C9406238091D5079091D6070C942B
:1046A0009D24F999FECF92BD81BDF89A992780B5D6
:1046B0000895262FF999FECF1FBA92BD81BD20BD66
:1046C0000FB6F894FA9AF99A0FBE01960895052E3E
:1046D00097FB1EF400940E947E2357FD07D00E9492
:1046E000BD2307FC03D04EF40C947E2350954095D7
:1046F000309521953F4F4F4F5F4F0895909580958E
:10470000709561957F4F8F4F9F4F08952F923F92E5
:104710004F925F926F927F928F929F92AF92BF92D1
:10472000CF92DF92EF92FF920F931F93CF93DF937D
:10473000CDB7DEB7CA1BDB0B0FB6F894DEBF0FBEDA
:10474000CDBF09942A88398848885F846E847D8427
:104750008C849B84AA84B984C884DF80EE80FD8029
:104760000C811B81AA81B981CE0FD11D0FB6F8949F
:10477000DEBF0FBECDBFED010895A1E21A2EAA1B28
:10478000BB1BFD010DC0AA1FBB1FEE1FFF1FA21701
:10479000B307E407F50720F0A21BB30BE40BF50BFE
:1047A000661F771F881F991F1A9469F76095709587
:1047B000809590959B01AC01BD01CF010895A29F0A
:1047C000B001B39FC001A39F700D811D1124911DE5
:1047D000B29F700D811D1124911D0895AA1BBB1B52
:1047E00051E107C0AA1FBB1FA617B70710F0A61BF1
:1047F000B70B881F991F5A95A9F780959095BC0112
:10480000CD010895EE0FFF1F0590F491E02D09945E
:10481000CF93DF938230910510F482E090E0E09135
:104820006008F091610820E030E0C0E0D0E030970F
:1048300011F14081518148175907C0F048175907B5
:1048400061F482819381209719F09B838A832BC026
:10485000909361088093600826C02115310519F0F6
:104860004217530718F49A01BE01DF01EF010280DD
:10487000F381E02DDCCF2115310509F1281B390B1F
:104880002430310590F412968D919C911397611507
:10489000710521F0FB019383828304C0909361082A
:1048A00080936008FD01329644C0FD01E20FF31FC2
:1048B00081939193225031092D933C933AC02091DA
:1048C0005E0830915F08232B41F42091380130912C
:1048D000390130935F0820935E08209136013091B2
:1048E00037012115310541F42DB73EB740913A010A
:1048F00050913B01241B350BE0915E08F0915F085D
:10490000E217F307A0F42E1B3F0B2817390778F0A6
:10491000AC014E5F5F4F2417350748F04E0F5F1F05
:1049200050935F0840935E088193919302C0E0E04A
:10493000F0E0CF01DF91CF9108950F931F93CF93B4
:10494000DF93009709F48CC0FC0132971382128226
:1049500000916008109161080115110581F4208112
:104960003181820F931F20915E0830915F082817D4
:10497000390779F5F0935F08E0935E0871C0D801BC
:1049800040E050E0AE17BF0750F412962D913C91D5
:104990001397AD012115310509F1D901F3CF9D011F
:1049A000DA013383228360817181860F971F82171A
:1049B000930769F4EC0128813981260F371F2E5F98
:1049C0003F4F318320838A819B8193838283452B50
:1049D00029F4F0936108E093600842C01396FC93B9
:1049E000EE931297ED01499159919E01240F351FC5
:1049F000E217F30771F480819181840F951F02966D
:104A000011969C938E938281938113969C938E939F
:104A10001297E0E0F0E0D80112968D919C911397E7
:104A2000009719F0F8018C01F6CF8D919C919801B7
:104A30002E5F3F4F820F931F20915E0830915F08D9
:104A40002817390769F4309729F4109261081092F9
:104A5000600802C01382128210935F0800935E0800
:104A6000DF91CF911F910F910895A0E0B0E0EBE3AB
:104A7000F5E20C948A23EC01009721F4CB010E940B
:104A80000824B8C0FC01E60FF71F9C012250310931
:104A9000E217F30708F4ACC0D9010D911C911197EE
:104AA00006171707B0F00530110508F49FC0C801BC
:104AB00004978617970708F499C002501109061B3E
:104AC000170B019311936D937C93CF010E949D244A
:104AD0008DC05B01A01AB10A4C01800E911EA091FD
:104AE0006008B091610840E050E0E12CF12C109793
:104AF00009F44AC0A815B905D1F56D907C901197BD
:104B0000630182E0C80ED11CCA14DB0480F1A3014A
:104B10004A195B096A0182E0C80ED11C1296BC904A
:104B200012971396AC91B5E0CB16D10440F0B28247
:104B3000A38351834083D9016D937C930AC00E5F98
:104B40001F4FC301800F911FF90191838083EB2DCB
:104B5000FA2FE114F10431F0D7011396FC93EE9390
:104B6000129744C0F0936108E09360083FC08D91B4
:104B70009C9111974817590708F4AC017D011296D2
:104B80000D90BC91A02DB3CF80915E0890915F08ED
:104B900088159905E1F446175707C8F48091360146
:104BA00090913701009741F48DB79EB740913A013B
:104BB00050913B01841B950BE817F907C8F4F0935B
:104BC0005F08E0935E08F901718360830FC0CB0139
:104BD0000E9408247C01009759F0A801BE010E94A0
:104BE0000426CE010E949D24C70104C0CE0102C04C
:104BF00080E090E0CDB7DEB7EEE00C94A62381E034
:104C000090E0F8940C941426FB01DC0102C00190A2
:104C10000D9241505040D8F70895FB01DC010190FE
:104C20000D920020E1F708951FE0CCE6DFE004C01C
:104C3000FE010E9402242196CD36D107C9F7F894CF
:024C4000FFCFA4
:104C4200FFFFFFFF9CFF9CFF00E10000000000004F
:104C52008B168B14891289100000000000000000DE
:104C62000800010000050078000003001F19D51894
:104C72008D18FFFFFFFF0000620880004000C000A7
:104C820054015401EA0100026C02F802F8027A03AC
:104C920084037A0301000000010100010101000107
:104CA20014001E000F001E001400280019000F003F
:104CB20028000F001900230000000000A1120812B2
:104CC2003E13B712C2126613421300000000C5164B
:104CD2005816D217D1170623FCFF00004823020002
:104CE20000C1808100000057697A617264616C20A2
:104CF200546563686E696372792E2E2E0070726F2E
:104D0200756E646C792070726573656E74732E2E85
:104D12002E0050726573732042210068703A002B96
:104D2200002020202020206D703A002A000D0A0069
:104D320020202047616D65204F76657220203A2839
:104D42000053656520696620796F752063616E2066
:104D52006D616B650074686520656E64206E6578B0
:104D6200742074696D652100596F7520646964202F
:104D72006974210053636F72653A20005072657343
:104D820073204120746F2072657374617274000025
:00000001FF
